:100000000C94B4020C94D1020C94D1020C94D10241
:100010000C94D1020C94D1020C94D1020C94D10214
:100020000C94D1020C94D1020C94D1020C94D10204
:100030000C94D1020C94D1020C94D1020C94D102F4
:100040000C94D1020C94D1020C948F060C94D10222
:100050000C94D1020C94D1020C94D1020C94D102D4
:100060000C94D1020C94D10200000000003E5B4FC2
:100070005B3E3E6B4F6B3E1C3E7C3E1C183C7E3C08
:10008000181C577D571C1C5E7F5E1C00183C180016
:10009000FFE7C3E7FF0018241800FFE7DBE7FF30A6
:1000A000483A060E2629792926407F050507407F14
:1000B00005253F5A3CE73C5A7F3E1C1C08081C1C87
:1000C0003E7F14227F22145F5F005F5F06097F017D
:1000D0007F006689956A606060606094A2FFA29468
:1000E00008047E040810207E201008082A1C080836
:1000F0001C2A08081E101010100C1E0C1E0C303884
:100100003E3830060E3E0E06000000000000005F84
:1001100000000007000700147F147F14242A7F2AA0
:100120001223130864623649562050000807030062
:10013000001C2241000041221C002A1C7F1C2A08AE
:10014000083E080800807030000808080808000011
:1001500060600020100804023E5149453E00427F85
:10016000400072494949462141494D331814127FD4
:100170001027454545393C4A494931412111090774
:100180003649494936464949291E000014000000F5
:1001900040340000000814224114141414140041C7
:1001A00022140802015909063E415D594E7C121184
:1001B000127C7F494949363E414141227F414141BC
:1001C0003E7F494949417F090909013E4141517337
:1001D0007F0808087F00417F41002040413F017FA8
:1001E000081422417F404040407F021C027F7F0470
:1001F00008107F3E4141413E7F090909063E4151B9
:10020000215E7F09192946264949493203017F01A8
:10021000033F4040403F1F2040201F3F4038403FA9
:10022000631408146303047804036159494D4300BF
:100230007F4141410204081020004141417F0402F6
:10024000010204404040404000030708002054548D
:1002500078407F284444383844444428384444286B
:100260007F385454541800087E090218A4A49C78BE
:100270007F0804047800447D40002040403D007F1A
:100280001028440000417F40007C047804787C08FA
:100290000404783844444438FC18242418182424CE
:1002A00018FC7C08040408485454542404043F44B3
:1002B000243C4040207C1C2040201C3C4030403CE2
:1002C00044281028444C9090907C4464544C440042
:1002D00008364100000077000000413608000201A6
:1002E0000204023C2623263C1EA1A161123A404092
:1002F000207A38545455592155557941225454780F
:1003000042215554784020545579400C1E527212A7
:100310003955555559395454545939555454580030
:1003200000457C410002457D420001457C407D1234
:1003300011127DF0282528F07C5455450020545496
:100340007C547C0A097F4932494949323A44444441
:100350003A324A4848303A4141217A3A424020787C
:10036000009DA0A07D3D4242423D3D4040403D3C7D
:1003700024FF2424487E4943662B2FFC2F2BFF09A2
:1003800029F620C0887E0903205454794100004496
:100390007D413048484A32384040227A007A0A0A81
:1003A000727D0D19317D2629292F282629292926F4
:1003B00030484D4020380808080808080808382F39
:1003C00010C8ACBA2F102834FA00007B00000814C3
:1003D0002A142222142A14085500550055AA55AA99
:1003E00055AAFF55FF55FF000000FF00101010FF39
:1003F00000141414FF001010FF00FF1010F010F094
:10040000141414FC001414F700FF0000FF00FF1484
:1004100014F404FC141417101F10101F101F1414D0
:10042000141F00101010F0000000001F101010101A
:100430001F10101010F010000000FF10101010100E
:1004400010101010FF10000000FF140000FF00FF4C
:1004500000001F10170000FC04F4141417101714E8
:1004600014F404F40000FF00F7141414141414140A
:10047000F700F7141414171410101F101F1414147D
:10048000F4141010F010F000001F101F0000001FE7
:1004900014000000FC140000F010F01010FF10FF1A
:1004A000141414FF141010101F00000000F010FFAF
:1004B000FFFFFFFFF0F0F0F0F0FFFFFF0000000093
:1004C00000FFFF0F0F0F0F0F3844443844FC4A4A17
:1004D0004A347E02020606027E027E0263554941CC
:1004E000633844443C04407E201E2006027E020203
:1004F00099A5E7A5991C2A492A1C4C7201724C3017
:100500004A4D4D303048784830BC625A463D3E49ED
:100510004949007E0101017E2A2A2A2A2A44445F91
:10052000444440514A444040444A51400000FF0185
:1005300003E080FF000008086B6B08361236243693
:10054000060F090F060000181800000010100030F8
:1005500040FF0101001F01011E00191D1712003C80
:100560003C3C3C000000000011241FBECFEFD8E04F
:10057000DEBFCDBF11E0A0E0B1E0ECEEFEE002C0D6
:1005800005900D92A830B107D9F726E0A8E0B1E0B8
:1005900001C01D92AF30B207E1F70E94F6060C943D
:1005A00074070C9400001092B8001092B9000895DE
:1005B00094EA9093BC00ECEBF0E090819923ECF787
:1005C0009091B900987F9830A1F48093BB0084E8A3
:1005D0008093BC00ECEBF0E080818823ECF79091F5
:1005E000B900987F983139F081E0903429F480E0A7
:1005F000089581E0089580E008958093BB0084E829
:100600008093BC00ECEBF0E080818823ECF79091C4
:10061000B900987F81E0983209F480E0089584E978
:100620008093BC0008958038910508F070C0603454
:10063000710508F06CC04130510531F030F14230A5
:10064000510509F444C00895FB0177230CF4379653
:10065000F595E795F595E795F595E795F695FE2FD0
:10066000EE27F795E7958E0F9F1FFC01E45FFE4F85
:100670006770772781E090E002C0880F991F6A9524
:10068000E2F79081892B80830895FB0177230CF496
:100690003796F595E795F595E795F595E795F695F0
:1006A000FE2FEE27F795E7958E0F9F1FFC01E45F65
:1006B000FE4F6770772781E090E002C0880F991F96
:1006C0006A95E2F780959081892380830895FB01E4
:1006D00077230CF43796F595E795F595E795F5951D
:1006E000E795F695FE2FEE27F795E7958E0F9F1F5E
:1006F000FC01E45FFE4F6770772781E090E002C065
:10070000880F991F6A95E2F7908189278083089561
:10071000CF93C82F88E70E94D80280E00E94FD0294
:100720008C2F0E94FD020E940F03CF910895CF935A
:10073000C82F8EEA0E94880385ED0E94880380E816
:100740000E94880388EA0E9488038FE30E9488033E
:1007500083ED0E94880380E00E94880380E40E9469
:1007600088038DE80E948803C13011F580E10E9462
:10077000880380E20E94880380E00E94880381EA67
:100780000E94880388EC0E9488038AED0E948803F7
:1007900082E10E94880381E80E9488038FE90E9419
:1007A000880389ED0E94880382E20E94880321C0A9
:1007B00084E10E94880380E20E94880380E00E9416
:1007C000880381EA0E94880388EC0E9488038AEDEE
:1007D0000E94880382E10E94880381E80E948803C6
:1007E0008FEC0E94880389ED0E94880381EF0E94AC
:1007F00088038BED0E94880380E40E94880384EACA
:100800000E94880386EA0E9488038EE20E94880381
:100810008FEA0E948803CF910895EF92FF920F9381
:100820001F93CF93DF9381E20E94880380E00E94B0
:1008300088038FE70E94880382E20E94880380E099
:100840000E94880387E00E948803CCE0D1E00F2E4D
:10085000FCE0EF2EF5E0FF2EF02D88E70E94D80295
:1008600080E40E94FD028E01005F1F4F89910E946B
:10087000FD02C017D107D1F70E940F03E8010E1542
:100880001F0559F7DF91CF911F910F91FF90EF90C6
:10089000089580E094E0ECE0F1E0DF019C011D921E
:1008A00021503040E1F710920B0110920A01109292
:1008B00009011092080108952F923F924F925F9282
:1008C0006F927F928F929F92AF92BF92CF92DF9260
:1008D000EF92FF920F931F93CF93DF9300D000D03E
:1008E000CDB7DEB79C838B837B016A011A830983B2
:1008F000C901861B970B8C0122F400271127081BC6
:10090000190BC6014B815C81841B950B5C0122F4A1
:10091000AA24BB24A81AB90AA016B1065CF49C2D1F
:100920008D2D6901292F382F9B818C81FC82EB82D0
:10093000E92EF82E8B819C81C816D906DCF59E2DF8
:100940008F2D7901292F382F9B818C81DC82CB82DE
:10095000C92ED82E2FC04B815C81C416D5060CF44D
:1009600044C044244A94542C03C044244394512C3E
:10097000A016B10644F449815A816B817C81C7017C
:100980000E94130307C049815A81B7018B819C8162
:100990000E9413038618970822F4E40CF51C820CBD
:1009A000931C8B819C8101969C838B83C816D906EE
:1009B000FCF61BC016014B815C81241A350AC90163
:1009C0008E199F093C0122F466247724681A790A5B
:1009D000410133201CF45FEF851A950A95948794A2
:1009E000E216F3060CF4C1CFB6CF0F900F900F9024
:1009F0000F90DF91CF911F910F91FF90EF90DF90BB
:100A0000CF90BF90AF909F908F907F906F905F90AE
:100A10004F903F902F9008950F931F93460F571FAD
:100A20004150510989019A01AC010E945C041F9157
:100A30000F910895AF92BF92CF92DF92EF92FF9203
:100A40000F931F93CF93DF93EC015B0169017C014E
:100A5000E40EF51E8E159F0554F49801A601B5010C
:100A6000CE010E940C052196CE15DF05B4F3DF916F
:100A7000CF911F910F91FF90EF90DF90CF90BF909B
:100A8000AF9008952F923F924F925F926F927F9214
:100A90008F929F92AF92BF92CF92DF92EF92FF928E
:100AA0000F931F93CF93DF93CDB7DEB72F970FB67A
:100AB000F894DEBF0FBECDBF803891050CF09CC00E
:100AC000603871050CF098C02E2C312CF101EE0F1E
:100AD000FF1FE20DF31DEE0FFF1FE80FF91F319707
:100AE0000AF48AC0F101EE0FFF1FEE0FFF1FEE0F99
:100AF000FF1FE60FF71F31970AF47EC0EB82280133
:100B000059017B876A8750E09A01220F331F220F19
:100B1000331F420F531F9A0128593F4F39872887A7
:100B200041016C01FC013596FD87EC879D838C8328
:100B30003B01F8E06F0E711C3A822982E885F98545
:100B400034901C812D802A853B8579013F872E8733
:100B5000DF82CE82D32C312ED0FE15C03B813130C6
:100B600041F4A5016E857F858E819F810E941303CC
:100B700021C0850129813A81A901B701832D922DD8
:100B80000E941A0517C0A414B504A1F08B8181300E
:100B900041F4A2016E857F858E819F810E9413039F
:100BA00009C0820129813A81A901B701832D922DC3
:100BB0000E941A05D694E80CF91CEE85FF85319643
:100BC000FF87EE87E615F70539F6CE80DF802885AA
:100BD00039852F5F3F4F398728878C819D81880D0C
:100BE000991D9D838C839FEFC91AD90AEC85FD85D9
:100BF000CE16DF0609F0A2CF2F960FB6F894DEBF0F
:100C00000FBECDBFDF91CF911F910F91FF90EF905D
:100C1000DF90CF90BF90AF909F908F907F906F901C
:100C20005F904F903F902F900895EF920F931F93F6
:100C3000CF93C82F8091080190910901C9976CF05A
:100C40000E94490410920B0110920A0110920901AE
:100C500010920801CD3019F442C0CD30C9F1CA302C
:100C600049F16091080170910901EE24E39401E0DB
:100C700010E021E030E04C2F80910A0190910B01AF
:100C80000E94420580910A0190910B010696909373
:100C90000B0180930A011CC010920B0110920A01F3
:100CA0008091080190910901089690930901809321
:100CB000080115C010920B0110920A0180910801E1
:100CC000909109010896909309018093080107C04B
:100CD00080910A0190910B018B379105ECF6CF9131
:100CE0001F910F91EF9008950F931F93CF93DF9370
:100CF000FC0101900020E9F73197E81BF90B51F056
:100D0000EC018C010E0F1F1F89910E941506C01760
:100D1000D107D1F7DF91CF911F910F9108951F92C5
:100D20000F920FB60F9211248F93EF93FF93E0EC85
:100D3000F0E080818823ECF7E0910E058091C600F9
:100D4000F0E0E15FFA4F808380910E058F5F809322
:100D50000E0580910E05882314F410920E058091E3
:100D60000D058F5F80930D05FF91EF918F910F908F
:100D70000FBE0F901F90189580910D058823E1F309
:100D800090910E0580910D05981758F0E0910E0591
:100D900080910D05F0E0E81BF109E15FFA4F8081D9
:100DA0000CC0E0910E0580910D05F0E0E058FF4F7A
:100DB000E81BF109E15FFA4F808190910D05915098
:100DC00090930D05089546E050E06FE875E080E0EF
:100DD00091E00E946607892B41F40E9449048FE844
:100DE00095E00E9474060E940D04089590E080E84A
:100DF0000FB6F89480936100909361000FBE80E875
:100E000095E20E942B0778940E94D3028FE19EE422
:100E10000197F1F700C0000082E00E949703CFE83D
:100E2000D5E010E80E94BC06E0910C05F0E0E15727
:100E3000FA4F808390910C059F5F90930C058A3048
:100E400089F70E94E306FE01812F11928A95E9F746
:100E500010920C05E7CF01979C0140E050E060E262
:100E600071EA87E090E00E944407832F99278093DE
:100E7000C5002093C40088E98093C100E2ECF0E053
:100E80008081866080830895A1E21A2EAA1BBB1B75
:100E9000FD010DC0AA1FBB1FEE1FFF1FA217B30746
:100EA000E407F50720F0A21BB30BE40BF50B661F5C
:100EB000771F881F991F1A9469F760957095809520
:100EC00090959B01AC01BD01CF010895FB01DC01B0
:100ED0004150504030F08D910190801919F400205C
:0C0EE000B9F7881B990B0895F894FFCF18
:080EEC00244750524D43000061
:00000001FF
