:10000000B8C1D1C1D0C1CFC1CEC1CDC1CCC1CBC18E
:10001000CAC1C9C1C8C1C7C1C6C1C5C1C4C1C3C1A4
:10002000C2C1C1C1C0C1AE2000B0C8001040813FF4
:10003000A1A6A83FA4D300D5F0D922DA12DB208DE7
:1000400014AF000000000000005F00000007000780
:1000500000147F147F14242A7F2A12231308646259
:1000600036495522500005030000001C22410000C3
:1000700041221C00082A1C2A0808083E08080050D3
:100080003000000808080808006060000020100820
:1000900004023E5149453E00427F400042615149C1
:1000A000462141454B311814127F102745454539EB
:1000B0003C4A494930017109050336494949360628
:1000C0004949291E00363600000056360000000857
:1000D0001422411414141414412214080002015172
:1000E0000906324979413E7E1111117E7F49494905
:1000F000363E414141227F4141221C7F49494941CD
:100100007F090901013E414151327F0808087F0003
:10011000417F41002040413F017F081422417F4040
:100120004040407F0204027F7F0408107F3E41412F
:10013000413E7F090909063E4151215E7F09192987
:1001400046464949493101017F01013F4040403F56
:100150001F2040201F7F2018207F63140814630392
:1001600004780403615149454300007F4141020482
:1001700008102041417F0000040201020440404079
:100180004040000102040020545454787F48444405
:10019000383844444420384444487F385454541830
:1001A000087E090102081454543C7F0804047800B6
:1001B000447D40002040443D00007F102844004121
:1001C0007F40007C041804787C0804047838444498
:1001D00044387C14141408081414187C7C08040493
:1001E000084854545420043F4440203C4040207C64
:1001F0001C2040201C3C4030403C44281028440C2B
:100200005050503C4464544C4400083641000000B7
:100210007F0000004136080008082A1C08081C2A34
:1002200008087C14141408384444442004047C0452
:10023000040C5050503C3048FC48304428102844AE
:100240007C404040FC0C1010107C7C407C407C7C4E
:10025000407C40FC047C5050207C5050207C7C50E2
:1002600050200028445454387C1038443808543402
:10027000147C7E1111117E7F494949337F494949D8
:10028000367F01010103E0514F41FF7F4949494158
:1002900077087F087741494949367F1008047F7CF9
:1002A0002112097C7F0814224120413F017F7F02F7
:1002B0000C027F7F0808087F3E4141413E7F0101DB
:1002C000017F7F090909063E4141412201017F0169
:1002D0000147281008071C227F221C63140814639E
:1002E0007F404040FF070808087F7F407F407F7FB6
:1002F000407F40FF017F4848307F4830007F007FCB
:10030000484830224149493E7F083E413E4629192E
:10031000097F20545454783C4A4A49317C5454282B
:10032000007C0404040CE0544C44FC38545454182D
:100330006C107C106C44445454287C2010087C7C45
:100340004122117C7C1028440020443C047C7C0821
:1003500010087C7C1010107C38444444387C040421
:10036000047C48656C6C6F204D45584148754B00C6
:100370002C0311241FBECFE5D4E0DEBFCDBF20E0AB
:10038000A0E6B0E001C01D92A336B207E1F711E08C
:10039000C9EBD1E003C02197FE0162D1C83BD10770
:1003A000D1F758D163C12CCE8CE080B9089516BE28
:1003B00084EA86BF06B607FEFDCF81B1887F88300C
:1003C00079F463B984E886BF06B607FEFDCF91B124
:1003D000987F983139F081E0903429F080E00895D9
:1003E00080E0089581E0089584E986BF089563B9A7
:1003F00084E886BF06B607FEFDCF91B1987F81E005
:10040000983209F080E008951F93CF93DF93EC01B9
:10041000162F68E788819981CADF60E08881998119
:10042000E6DF612F88819981E2DF88819981DCDFB5
:10043000DF91CF911F910895EF92FF920F931F9339
:10044000CF93DF938C01FC0171836083C6E2D0E01F
:100450000F2EF2E4EF2EF0E0FF2EF02DFE0164915E
:10046000C801D2DF2196CE15DF05C1F7DF91CF910C
:100470001F910F91FF90EF9008950F931F93CF93CB
:100480008C01C62F60EB640FBFDF6C2F62956F701D
:100490006061C801B9DF6C2F6F70C801B5DFCF9103
:1004A0001F910F9108951F93CF93DF93EC01162FA7
:1004B00068E7888199817BDF60E48881998197DF93
:1004C000612F8881998193DF888199818DDFDF9108
:1004D000CF911F910895EF92FF920F931F93CF93A7
:1004E000DF937C01062F642F422FC7DF602F70E05F
:1004F0008B01000F111F000F111F600F711FC0E053
:10050000D0E08B01005A1109F801EC0FFD1FEE5BE2
:10051000FF4F6491C701C7DF2196C530D105A1F710
:10052000DF91CF911F910F91FF90EF900895EF927F
:10053000FF920F931F93CF93DF937C01062F642FBD
:10054000422F9BDF6FEFC701AEDF602F70E08B01A2
:10055000000F111F000F111F600F711FC0E0D0E0CE
:100560008B01005A1109F801EC0FFD1FEE5BFF4FE4
:1005700064916095C70197DF2196C530D10599F741
:100580006FEFC70190DFDF91CF911F910F91FF9027
:10059000EF900895CF92DF92FF920F931F93CF9326
:1005A000DF936C01EB01142FF22EFB018491882361
:1005B000B9F0FE01649190E3960F923060F0002351
:1005C00029F02F2D412FC601B2DF04C02F2D412F5E
:1005D000C60181DF1A5F2196FE0194919111E9CF46
:1005E000DF91CF911F910F91FF90DF90CF900895F1
:1005F0000F9300E0CFDF0F910895FF920F931F93A9
:10060000CF93DF938C01F62E40E060E036DFC0E050
:10061000D2E06F2DC80147DF6F2DC80144DF21975D
:10062000C1F7DF91CF911F910F91FF90089560E086
:10063000E4DF089560E670E081E690E0FDDE81E6AB
:1006400090E0F5DF20E040E062E673E081E690E0D4
:10065000CFDF0895EFDFFFCF80E690E0A5DE0895BD
:10066000EE0FFF1F0590F491E02D0994F894FFCF51
:00000001FF
