:100000000C94B4040C94C6040C94C6040C94C6045A
:100010000C94C6040C94C6040C94C6040C94C60438
:100020000C94C6040C94C6040C94C6040C94C60428
:100030000C94C6040C94C6040C94C6040C94C60418
:100040000C94C6040C94C6040C94560A0C94C60472
:100050000C94C6040C94C6040C94C6040C94C604F8
:100060000C94C6040C94C60400000000003E5B4FD4
:100070005B3E3E6B4F6B3E1C3E7C3E1C183C7E3C08
:10008000181C577D571C1C5E7F5E1C00183C180016
:10009000FFE7C3E7FF0018241800FFE7DBE7FF30A6
:1000A000483A060E2629792926407F050507407F14
:1000B00005253F5A3CE73C5A7F3E1C1C08081C1C87
:1000C0003E7F14227F22145F5F005F5F06097F017D
:1000D0007F006689956A606060606094A2FFA29468
:1000E00008047E040810207E201008082A1C080836
:1000F0001C2A08081E101010100C1E0C1E0C303884
:100100003E3830060E3E0E06000000000000005F84
:1001100000000007000700147F147F14242A7F2AA0
:100120001223130864623649562050000807030062
:10013000001C2241000041221C002A1C7F1C2A08AE
:10014000083E080800807030000808080808000011
:1001500060600020100804023E5149453E00427F85
:10016000400072494949462141494D331814127FD4
:100170001027454545393C4A494931412111090774
:100180003649494936464949291E000014000000F5
:1001900040340000000814224114141414140041C7
:1001A00022140802015909063E415D594E7C121184
:1001B000127C7F494949363E414141227F414141BC
:1001C0003E7F494949417F090909013E4141517337
:1001D0007F0808087F00417F41002040413F017FA8
:1001E000081422417F404040407F021C027F7F0470
:1001F00008107F3E4141413E7F090909063E4151B9
:10020000215E7F09192946264949493203017F01A8
:10021000033F4040403F1F2040201F3F4038403FA9
:10022000631408146303047804036159494D4300BF
:100230007F4141410204081020004141417F0402F6
:10024000010204404040404000030708002054548D
:1002500078407F284444383844444428384444286B
:100260007F385454541800087E090218A4A49C78BE
:100270007F0804047800447D40002040403D007F1A
:100280001028440000417F40007C047804787C08FA
:100290000404783844444438FC18242418182424CE
:1002A00018FC7C08040408485454542404043F44B3
:1002B000243C4040207C1C2040201C3C4030403CE2
:1002C00044281028444C9090907C4464544C440042
:1002D00008364100000077000000413608000201A6
:1002E0000204023C2623263C1EA1A161123A404092
:1002F000207A38545455592155557941225454780F
:1003000042215554784020545579400C1E527212A7
:100310003955555559395454545939555454580030
:1003200000457C410002457D420001457C407D1234
:1003300011127DF0282528F07C5455450020545496
:100340007C547C0A097F4932494949323A44444441
:100350003A324A4848303A4141217A3A424020787C
:10036000009DA0A07D3D4242423D3D4040403D3C7D
:1003700024FF2424487E4943662B2FFC2F2BFF09A2
:1003800029F620C0887E0903205454794100004496
:100390007D413048484A32384040227A007A0A0A81
:1003A000727D0D19317D2629292F282629292926F4
:1003B00030484D4020380808080808080808382F39
:1003C00010C8ACBA2F102834FA00007B00000814C3
:1003D0002A142222142A14085500550055AA55AA99
:1003E00055AAFF55FF55FF000000FF00101010FF39
:1003F00000141414FF001010FF00FF1010F010F094
:10040000141414FC001414F700FF0000FF00FF1484
:1004100014F404FC141417101F10101F101F1414D0
:10042000141F00101010F0000000001F101010101A
:100430001F10101010F010000000FF10101010100E
:1004400010101010FF10000000FF140000FF00FF4C
:1004500000001F10170000FC04F4141417101714E8
:1004600014F404F40000FF00F7141414141414140A
:10047000F700F7141414171410101F101F1414147D
:10048000F4141010F010F000001F101F0000001FE7
:1004900014000000FC140000F010F01010FF10FF1A
:1004A000141414FF141010101F00000000F010FFAF
:1004B000FFFFFFFFF0F0F0F0F0FFFFFF0000000093
:1004C00000FFFF0F0F0F0F0F3844443844FC4A4A17
:1004D0004A347E02020606027E027E0263554941CC
:1004E000633844443C04407E201E2006027E020203
:1004F00099A5E7A5991C2A492A1C4C7201724C3017
:100500004A4D4D303048784830BC625A463D3E49ED
:100510004949007E0101017E2A2A2A2A2A44445F91
:10052000444440514A444040444A51400000FF0185
:1005300003E080FF000008086B6B08361236243693
:10054000060F090F060000181800000010100030F8
:1005500040FF0101001F01011E00191D1712003C80
:100560003C3C3C00000000000000000000000000D7
:10057000000000000000000000000000000000007B
:10058000000000000000000000000000000000006B
:10059000000000000000000000000000000000005B
:1005A000000000000000000000000000000000004B
:1005B000000000000000000000000000000000003B
:1005C000000000000000000000000000000000002B
:1005D000000000000000000000000000000000001B
:1005E000000000000000000000000000000000000B
:1005F00000000000000000000000000000000000FB
:1006000000000000000000000000000000000000EA
:1006100000000000000000000000000000000000DA
:1006200000000000000000000000000000000000CA
:1006300000000000000000000000000000000000BA
:1006400000000000000000000000000000000000AA
:10065000000000000000000000000000000000009A
:1006600000000000000000000000000F000000007B
:1006700000000707800000000000007FC0000000AD
:1006800000003FFFF000F010000003F04000000009
:100690000001F9E1FE039020000007E1C000000026
:1006A0000003E3607F0710C000001F83800000008C
:1006B000000F84601FDE338000003F0380000000D5
:1006C000001F184007BC7E0000007E0200000000F2
:1006D000003E30C0037BFC000001F8000000000079
:1006E00000F8208000F7F0000001F803801C038070
:1006F00001F0418000EFC0000003E01FC0FE0FF8D2
:10070000E3F0430003C10000000FC03C41E21E794A
:10071000E7C0860007820000000FC07843CE3CF09F
:100720000FC08C0007040000001F80F8479C71E098
:100730001F80F8000F0C0000003F01ECDF18F1C033
:100740001F0000001E100000003E03E7FE01E3C092
:100750003E0000003C200000007E07C13C03C78033
:100760007C00000038400000007C07827807871872
:10077000FC1E00F07987F80000FC0F02780F8F1044
:10078000F87F03D8F31FF80000F80F0CF81F1E21A4
:10079000F0F10719E63CF00001F81F18F83F3CC1E2
:1007A000F1E11F11F8F8F00001F01F30F07E7DC379
:1007B000E3C13F13F0F1E00001F01FE0F99FFF03F8
:1007C000E3C23B03C1E3C00001F01FC0FF1FFE07EF
:1007D000E3C279E783C3800001F00F007C1E380775
:1007E000E706F07F8787800001F000000000000727
:1007F000C40DE0CF070F100001F00000000000075B
:10080000C009E08F0F1F300001F00000000000075A
:10081000C011C11E1F1E600001F800003FFFC0078D
:10082000C063C31E3E3CC00000F80001FFFFF0079C
:10083000E0E3C61E7E7D8000007E007E01FFFC0797
:10084000FF83F81FFFFF0000003FFF00003E0E0186
:10085000FE03F01F3F7C0000000FF80000180100AD
:10086000FC01C01E1E380000000000000000000057
:100870000000000000000000000000000000000078
:100880000000000000000000000000000000000068
:100890000000000000000000000000000000000058
:1008A0000000000000000000000000000000000048
:1008B0000000000000000000000000000000000038
:1008C0000000000000000000000000000000000028
:1008D0000000000000000000000000000000000018
:1008E0000000000000000000000000000000000008
:1008F00000000000000000000000000000000000F8
:1009000000000000000000000000000000000000E7
:1009100000000000000000000000000000000000D7
:1009200000000000000000000000000000000000C7
:1009300000000000000000000000000000000000B7
:1009400000000000000000000000000000000000A7
:100950000000000000000000000000000000000097
:10096000000000000000000011241FBECFEFD8E0FF
:10097000DEBFCDBF25E0A0E0B1E001C01D92A638EA
:10098000B207E1F70E94830A0C94A90A0C940000B4
:100990001092B8001092B900089594EA9093BC00A8
:1009A000ECEBF0E090819923ECF79091B900987FFF
:1009B0009830A1F48093BB0084E88093BC00ECEBFA
:1009C000F0E080818823ECF79091B900987F98310E
:1009D00039F081E0903429F480E0089581E00895B1
:1009E00080E008958093BB0084E88093BC00ECEB2A
:1009F000F0E080818823ECF79091B900987F81E046
:100A0000983209F480E0089584E98093BC00089549
:100A10008038910508F070C06034710508F06CC032
:100A20004130510531F030F14230510509F444C0F4
:100A30000895FB0177230CF43796F595E795F59526
:100A4000E795F595E795F695FE2FEE27F795E7954F
:100A50008E0F9F1FFC01EC5FFE4F6770772781E0D0
:100A600090E002C0880F991F6A95E2F79081892B68
:100A700080830895FB0177230CF43796F595E7956D
:100A8000F595E795F595E795F695FE2FEE27F79501
:100A9000E7958E0F9F1FFC01EC5FFE4F6770772775
:100AA00081E090E002C0880F991F6A95E2F7809577
:100AB0009081892380830895FB0177230CF4379676
:100AC000F595E795F595E795F595E795F695FE2F5C
:100AD000EE27F795E7958E0F9F1FFC01EC5FFE4F09
:100AE0006770772781E090E002C0880F991F6A95B0
:100AF000E2F79081892780830895CF93C82F88E7F4
:100B00000E94CD0480E00E94F2048C2F0E94F20427
:100B10000E940405CF910895CF93C82F8EEA0E94BA
:100B20007D0585ED0E947D0580E80E947D0588EAAF
:100B30000E947D058FE30E947D0583ED0E947D0567
:100B400080E00E947D0580E40E947D058DE80E9482
:100B50007D05C13011F580E10E947D0580E20E9493
:100B60007D0580E00E947D0581EA0E947D0588EC7C
:100B70000E947D058AED0E947D0582E10E947D052F
:100B800081E80E947D058FE90E947D0589ED0E9424
:100B90007D0582E20E947D0521C084E10E947D05E1
:100BA00080E20E947D0580E00E947D0581EA0E942E
:100BB0007D0588EC0E947D058AED0E947D0582E11D
:100BC0000E947D0581E80E947D058FEC0E947D05D5
:100BD00089ED0E947D0581EF0E947D058BED0E94CD
:100BE0007D0580E40E947D0584EA0E947D0586EAF9
:100BF0000E947D058EE20E947D058FEA0E947D05A0
:100C0000CF910895EF92FF920F931F93CF93DF93AD
:100C100081E20E947D0580E00E947D058FE70E94B1
:100C20007D0582E20E947D0580E00E947D0587E0CF
:100C30000E947D05C4E0D1E00F2EF4E0EF2EF5E038
:100C4000FF2EF02D88E70E94CD0480E40E94F2047C
:100C50008E01005F1F4F89910E94F204C017D107D7
:100C6000D1F70E940405E8010E151F0559F7DF9121
:100C7000CF911F910F91FF90EF90089580E094E045
:100C8000E4E0F1E0DF019C011D9221503040E1F7EA
:100C900010920301109202011092010110920001C2
:100CA00008952F923F924F925F926F927F928F9210
:100CB0009F92AF92BF92CF92DF92EF92FF920F93EB
:100CC0001F93CF93DF9300D000D000D0CDB7DEB715
:100CD0006C014B015E834D833C832B8381E090E06C
:100CE0007C01E41AF50A1A01319421943108220C8E
:100CF000331CBA01680D791DA901C6010E940805BF
:100D0000B4012D813E81621B730B4B815C81C60156
:100D10000E9408054B815C81B4018D819E818C0D00
:100D20009D1D0E9408054B815C81B401C6012D8187
:100D30003E81821B930B0E9408058D819E811816AF
:100D400019060CF075C000E010E066246394712C65
:100D5000FF205CF02D813E81215031093E832D839F
:100D600032E0230E311CE20CF31C0F5F1F4F82E0B8
:100D7000680E711CE60CF71C5601A00EB11E4B81CB
:100D80005C812D813E81280D391D3A832983B9016B
:100D9000C5010E9408052601401A510A4B815C8159
:100DA00069817A81C2010E9408054B815C81C4017E
:100DB0002D813E81821B930B9A838983BC01C501DF
:100DC0000E9408054B815C8169817A81C2010E9481
:100DD00008055801A80CB91C4B815C81B5014D80F8
:100DE0005E804C0C5D1CC2010E9408054B815C8139
:100DF000B501C6012D813E81821B930B9A838983A5
:100E00000E9408055401A01AB10A4B815C81B5010A
:100E1000C2010E9408054B815C81B50189819A81DC
:100E20000E9408058D819E81081719070CF490CF48
:100E300026960FB6F894DEBF0FBECDBFDF91CF91DF
:100E40001F910F91FF90EF90DF90CF90BF90AF90E8
:100E50009F908F907F906F905F904F903F902F90DA
:100E600008952F923F924F925F926F927F928F924E
:100E70009F92AF92BF92CF92DF92EF92FF920F9329
:100E80001F93CF93DF9300D000D0CDB7DEB79C8304
:100E90008B837B016A011A830983C901861B970B27
:100EA0008C0122F400271127081B190BC6014B8166
:100EB0005C81841B950B5C0122F4AA24BB24A81A34
:100EC000B90AA016B1065CF49C2D8D2D6901292F5D
:100ED000382F9B818C81FC82EB82E92EF82E8B814E
:100EE0009C81C816D906DCF59E2D8F2D7901292FFE
:100EF000382F9B818C81DC82CB82C92ED82E2FC0CB
:100F00004B815C81C416D5060CF444C044244A9439
:100F1000542C03C044244394512CA016B10644F42D
:100F200049815A816B817C81C7010E94080507C0F5
:100F300049815A81B7018B819C810E9408058618DE
:100F4000970822F4E40CF51C820C931C8B819C8185
:100F500001969C838B83C816D906FCF61BC016012C
:100F60004B815C81241A350AC9018E199F093C0105
:100F700022F466247724681A790A410133201CF48C
:100F80005FEF851A950A95948794E216F3060CF4A0
:100F9000C1CFB6CF0F900F900F900F90DF91CF91F0
:100FA0001F910F91FF90EF90DF90CF90BF90AF9087
:100FB0009F908F907F906F905F904F903F902F9079
:100FC00008953F924F925F926F927F928F929F927D
:100FD000AF92BF92CF92DF92EF92FF920F931F9347
:100FE000CF93DF9300D000D000D0CDB7DEB73C0167
:100FF0004B015A016901FA82E982295F3F4FC90119
:1010000099230CF4079695958795959587959595D1
:101010008795101611060CF045C09C838B83280120
:10102000480C591CE12CF12C312C35C08D819E814E
:1010300087709927892B11F0330C10C0ED81FE8148
:10104000FF230CF43796F595E795F595E795F5951B
:10105000E795E00FF11FEA0DFB1D349033204CF4AF
:1010600049815A81B4018D819E81860D971D0E9410
:1010700008058D819E8101969E838D83C816D906B1
:10108000A9F69FEF891A990A8B819C81E80EF91EB7
:101090008414950439F01C141D049CF787011E82EA
:1010A0001D82C4CF26960FB6F894DEBF0FBECDBF0B
:1010B000DF91CF911F910F91FF90EF90DF90CF9034
:1010C000BF90AF909F908F907F906F905F904F9068
:1010D0003F9008950F931F93460F571F415051099A
:1010E00089019A01AC010E9431071F910F91089567
:1010F000AF92BF92CF92DF92EF92FF920F931F9326
:10110000CF93DF93EC015B0169017C01E40EF51ED6
:101110008E159F0554F49801A601B501CE010E94D9
:101120006A082196CE15DF05B4F3DF91CF911F91A8
:101130000F91FF90EF90DF90CF90BF90AF90089508
:101140002F923F924F925F926F927F928F929F92D7
:10115000AF92BF92CF92DF92EF92FF920F931F93C5
:10116000CF93DF93CDB7DEB72F970FB6F894DEBFDE
:101170000FBECDBF803891050CF09CC06038710562
:101180000CF098C02E2C312CF101EE0FFF1FE20D58
:10119000F31DEE0FFF1FE80FF91F31970AF48AC005
:1011A000F101EE0FFF1FEE0FFF1FEE0FFF1FE60F07
:1011B000F71F31970AF47EC0EB82280159017B8723
:1011C0006A8750E09A01220F331F220F331F420F0C
:1011D000531F9A0128593F4F3987288741016C01D5
:1011E000FC013596FD87EC879D838C833B01F8E0FD
:1011F0006F0E711C3A822982E885F98534901C8132
:101200002D802A853B8579013F872E87DF82CE821C
:10121000D32C312ED0FE15C03B81313041F4A501D5
:101220006E857F858E819F810E94080521C0850182
:1012300029813A81A901B701832D922D0E94780856
:1012400017C0A414B504A1F08B81813041F4A20130
:101250006E857F858E819F810E94080509C082016D
:1012600029813A81A901B701832D922D0E94780826
:10127000D694E80CF91CEE85FF853196FF87EE8742
:10128000E615F70539F6CE80DF80288539852F5F92
:101290003F4F398728878C819D81880D991D9D83BB
:1012A0008C839FEFC91AD90AEC85FD85CE16DF061F
:1012B00009F0A2CF2F960FB6F894DEBF0FBECDBFB8
:1012C000DF91CF911F910F91FF90EF90DF90CF9022
:1012D000BF90AF909F908F907F906F905F904F9056
:1012E0003F902F900895CF92DF92EF92FF920F934D
:1012F0001F93CF93DF93EE24E39401E010E021E00D
:1013000030E040E061E070E081E090E00E94A00801
:10131000FF24F394CC24C394D12CC7E0D0E015C0B3
:10132000EE24E39401E010E021E030E04F2DB6011F
:10133000CE010E94A0082696CB37D1052CF088E07C
:10134000C80ED11CC1E0D0E0F3940E94020688EAE6
:10135000F812E6CFDF91CF911F910F91FF90EF90A0
:10136000DF90CF900895EF92FF920F931F93CF934A
:10137000DF93EE24E394F12C00E410E020E830E069
:1013800048E655E060E070E080E090E00E94E10710
:101390000E9402062FEF8DE399E421508040904097
:1013A000E1F700C000000E9473092FEF89E698E181
:1013B000215080409040E1F700C000000E943E06AE
:1013C0000E9473092FEF8DE399E4215080409040F3
:1013D000E1F700C00000C0E0D0E001E010E09E01B5
:1013E00040E850E0BE0180E090E00E9431070E949A
:1013F00002062FE788E391E0215080409040E1F71A
:1014000000C000002896C034D10539F7C0E0D0E014
:1014100001E010E020E430E0AE0160E070E0CE01D9
:101420000E9431070E9402062FE788E391E02150D5
:1014300080409040E1F700C000002696C438D105F6
:1014400039F72FEF83ED90E3215080409040E1F792
:1014500000C00000C0E0D0E021E030E0AE0160E27A
:1014600070E080E490E00E9451060E9402062FEF97
:1014700080E792E0215080409040E1F700C00000FA
:101480002296C034D10541F72FEF83ED90E3215030
:1014900080409040E1F700C000000E943E06DF91CE
:1014A000CF911F910F91FF90EF9008951F920F928F
:1014B0000FB60F9211248F93EF93FF93E0ECF0E0BF
:1014C00080818823ECF7E09105058091C600F0E06B
:1014D000EA5FFA4F8083809105058F5F8093050551
:1014E00080910505882314F4109205058091040568
:1014F0008F5F80930405FF91EF918F910F900FBE46
:101500000F901F90189590E080E80FB6F8948093A4
:101510006100909361000FBE0E94C8048FE19EE4B9
:101520000197F1F700C0000082E00E948C05EE24D4
:10153000E39401E010E021E030E044E560E070E099
:1015400080E090E00E94A0080E9402060E94B30979
:06155000FDCFF894FFCF6F
:00000001FF
